{"abi":[{"type":"constructor","inputs":[],"stateMutability":"nonpayable"},{"type":"function","name":"balanceOfNotional","inputs":[{"name":"user","type":"address","internalType":"address"},{"name":"assetIndex","type":"uint256","internalType":"uint256"}],"outputs":[{"name":"","type":"uint256","internalType":"uint256"}],"stateMutability":"view"},{"type":"function","name":"closePosition","inputs":[{"name":"tokenNotional","type":"uint256","internalType":"uint256"},{"name":"assetIndex","type":"uint256","internalType":"uint256"}],"outputs":[{"name":"","type":"uint256","internalType":"uint256"}],"stateMutability":"nonpayable"},{"type":"function","name":"faucet","inputs":[],"outputs":[],"stateMutability":"nonpayable"},{"type":"function","name":"getAllUsersPnlList","inputs":[],"outputs":[{"name":"","type":"address[]","internalType":"address[]"},{"name":"","type":"int256[]","internalType":"int256[]"}],"stateMutability":"view"},{"type":"function","name":"getMarkOraclePxs","inputs":[],"outputs":[{"name":"","type":"uint256[]","internalType":"uint256[]"}],"stateMutability":"nonpayable"},{"type":"function","name":"getPositionPnl","inputs":[{"name":"user","type":"address","internalType":"address"},{"name":"assetIndex","type":"uint256","internalType":"uint256"}],"outputs":[{"name":"","type":"int256","internalType":"int256"}],"stateMutability":"view"},{"type":"function","name":"getPositionValue","inputs":[{"name":"user","type":"address","internalType":"address"},{"name":"assetIndex","type":"uint256","internalType":"uint256"}],"outputs":[{"name":"","type":"uint256","internalType":"uint256"}],"stateMutability":"view"},{"type":"function","name":"getUserPositions","inputs":[{"name":"user","type":"address","internalType":"address"}],"outputs":[{"name":"","type":"tuple[]","internalType":"struct Perpetual.GetPosition[]","components":[{"name":"tokenNotional","type":"uint256","internalType":"uint256"},{"name":"margin","type":"uint256","internalType":"uint256"},{"name":"debt","type":"uint256","internalType":"uint256"},{"name":"isLong","type":"bool","internalType":"bool"},{"name":"active","type":"bool","internalType":"bool"},{"name":"pnl","type":"int256","internalType":"int256"},{"name":"positionValue","type":"uint256","internalType":"uint256"},{"name":"assetIndex","type":"uint256","internalType":"uint256"}]}],"stateMutability":"view"},{"type":"function","name":"liquidateAllUsers","inputs":[],"outputs":[],"stateMutability":"nonpayable"},{"type":"function","name":"liquidatePosition","inputs":[{"name":"user","type":"address","internalType":"address"},{"name":"assetIndex","type":"uint256","internalType":"uint256"}],"outputs":[{"name":"","type":"bool","internalType":"bool"}],"stateMutability":"nonpayable"},{"type":"function","name":"openPosition","inputs":[{"name":"margin","type":"uint256","internalType":"uint256"},{"name":"usdNotional","type":"uint256","internalType":"uint256"},{"name":"isLong","type":"bool","internalType":"bool"},{"name":"assetIndex","type":"uint256","internalType":"uint256"}],"outputs":[{"name":"","type":"uint256","internalType":"uint256"}],"stateMutability":"nonpayable"},{"type":"function","name":"oracle","inputs":[],"outputs":[{"name":"","type":"address","internalType":"contract SystemOracle"}],"stateMutability":"view"},{"type":"function","name":"positions","inputs":[{"name":"","type":"address","internalType":"address"},{"name":"","type":"uint256","internalType":"uint256"}],"outputs":[{"name":"tokenNotional","type":"uint256","internalType":"uint256"},{"name":"margin","type":"uint256","internalType":"uint256"},{"name":"debt","type":"uint256","internalType":"uint256"},{"name":"isLong","type":"bool","internalType":"bool"},{"name":"active","type":"bool","internalType":"bool"}],"stateMutability":"view"},{"type":"function","name":"usdc","inputs":[],"outputs":[{"name":"","type":"address","internalType":"contract USDC"}],"stateMutability":"view"},{"type":"function","name":"userList","inputs":[{"name":"","type":"uint256","internalType":"uint256"}],"outputs":[{"name":"","type":"address","internalType":"address"}],"stateMutability":"view"},{"type":"function","name":"users","inputs":[{"name":"","type":"address","internalType":"address"}],"outputs":[{"name":"totalPnl","type":"int256","internalType":"int256"},{"name":"totalVolume","type":"uint256","internalType":"uint256"},{"name":"claimedFaucet","type":"bool","internalType":"bool"}],"stateMutability":"view"},{"type":"event","name":"Liquidated","inputs":[{"name":"user","type":"address","indexed":true,"internalType":"address"},{"name":"assetIndex","type":"uint256","indexed":true,"internalType":"uint256"},{"name":"amount","type":"uint256","indexed":true,"internalType":"uint256"}],"anonymous":false},{"type":"event","name":"PositionClosed","inputs":[{"name":"user","type":"address","indexed":true,"internalType":"address"},{"name":"assetIndex","type":"uint256","indexed":true,"internalType":"uint256"},{"name":"pnl","type":"int256","indexed":true,"internalType":"int256"},{"name":"amount","type":"uint256","indexed":false,"internalType":"uint256"}],"anonymous":false},{"type":"event","name":"PositionOpened","inputs":[{"name":"user","type":"address","indexed":true,"internalType":"address"},{"name":"assetIndex","type":"uint256","indexed":true,"internalType":"uint256"},{"name":"amount","type":"uint256","indexed":true,"internalType":"uint256"},{"name":"margin","type":"uint256","indexed":false,"internalType":"uint256"},{"name":"isLong","type":"bool","indexed":false,"internalType":"bool"}],"anonymous":false}],"bytecode":{"object":"0x6080604052600080546001600160a01b03191673111111111111111111111111111111111111111117905534801561003657600080fd5b50600280546001600160a01b03191633179055604051309061005790610109565b6001600160a01b039091168152602001604051809103906000f080158015610083573d6000803e3d6000fd5b50600180546001600160a01b0319166001600160a01b039290921691821790556040516340c10f1960e01b81523060048201526c0c9f2c9cd04674edea4000000060248201526340c10f1990604401600060405180830381600087803b1580156100ec57600080fd5b505af1158015610100573d6000803e3d6000fd5b50505050610116565b610c01806117e283390190565b6116bd806101256000396000f3fe608060405234801561001057600080fd5b50600436106101005760003560e01c8063792100f4116100975780639f4216e8116100665780639f4216e814610254578063a87430ba14610267578063c1be6677146102b6578063de5f72fd1461032d57600080fd5b8063792100f4146101e35780637c733c58146101f85780637dc0d1d01461020b5780637fdd147c1461021e57600080fd5b80633e413bee116100d35780633e413bee14610175578063507cfae5146101a05780635327d15c146101aa57806376f89965146101c057600080fd5b80632a6bc2dd146101055780632c51060f1461012e5780632d6ce61d1461014f5780633dc8f14414610162575b600080fd5b610118610113366004611273565b610335565b6040516101259190611295565b60405180910390f35b61014161013c366004611326565b610715565b604051908152602001610125565b61014161015d366004611350565b6107f1565b610141610170366004611383565b61098e565b600154610188906001600160a01b031681565b6040516001600160a01b039091168152602001610125565b6101a8610cb1565b005b6101b2610dfc565b6040516101259291906113c2565b6101d36101ce366004611326565b610f2e565b6040519015158152602001610125565b6101eb611025565b6040516101259190611446565b610141610206366004611326565b61109b565b600054610188906001600160a01b031681565b61014161022c366004611326565b6001600160a01b03919091166000908152600360209081526040808320938352929052205490565b61018861026236600461148a565b61110e565b610299610275366004611273565b60046020526000908152604090208054600182015460029092015490919060ff1683565b604080519384526020840192909252151590820152606001610125565b6103016102c4366004611326565b6003602081815260009384526040808520909152918352912080546001820154600283015492909301549092919060ff8082169161010090041685565b60408051958652602086019490945292840191909152151560608301521515608082015260a001610125565b6101a8611138565b60008054604080516323e4a38f60e21b81529051606093926001600160a01b031691638f928e3c91600480830192869291908290030181865afa158015610380573d6000803e3d6000fd5b505050506040513d6000823e601f3d908101601f191682016040526103a891908101906114b9565b90506000805b825181101561040a576001600160a01b03851660009081526003602081815260408084208585529091529091200154610100900460ff16156103f857816103f48161158d565b9250505b806104028161158d565b9150506103ae565b5060008167ffffffffffffffff811115610426576104266114a3565b6040519080825280602002602001820160405280156104a357816020015b6104906040518061010001604052806000815260200160008152602001600081526020016000151581526020016000151581526020016000815260200160008152602001600081525090565b8152602001906001900390816104445790505b5090506000805b845181101561070a576001600160a01b038716600090815260036020908152604080832084845290915290205483518490849081106104eb576104eb6115a6565b602090810291909101810151919091526001600160a01b038816600090815260038252604080822084835290925220600101548351849084908110610532576105326115a6565b6020908102919091018101518101919091526001600160a01b03881660009081526003825260408082208483529092522060020154835184908490811061057b5761057b6115a6565b6020908102919091018101516040908101929092526001600160a01b03891660009081526003808352838220858352909252919091200154835160ff909116908490849081106105cd576105cd6115a6565b6020908102919091018101519115156060909201919091526001600160a01b0388166000908152600380835260408083208584529093529190200154835161010090910460ff1690849084908110610627576106276115a6565b6020908102919091010151901515608090910152610645878261109b565b838381518110610657576106576115a6565b602002602001015160a00181815250506106718782610715565b838381518110610683576106836115a6565b602002602001015160c0018181525050808383815181106106a6576106a66115a6565b60209081029190910181015160e001919091526001600160a01b0388166000908152600380835260408083208584529093529190200154610100900460ff16156106f857816106f48161158d565b9250505b806107028161158d565b9150506104aa565b509095945050505050565b60008054604080516323e4a38f60e21b8152905183926001600160a01b031691638f928e3c91600480830192869291908290030181865afa15801561075e573d6000803e3d6000fd5b505050506040513d6000823e601f3d908101601f1916820160405261078691908101906114b9565b9050600081848151811061079c5761079c6115a6565b6020908102919091018101516001600160a01b038716600090815260038352604080822088835290935291909120549091506103e86107db83836115bc565b6107e591906115d3565b93505050505b92915050565b60006107fd3383610f2e565b1561080a575060006107eb565b6000610816338461109b565b3360009081526004602052604081208054929350839290919061083a9084906115f5565b90915550503360009081526003602090815260408083208684529091528120600101549061086883836115f5565b3360009081526004602052604081206001018054929350839290919061088f90849061161d565b909155505060015460405163a9059cbb60e01b8152336004820152602481018390526001600160a01b039091169063a9059cbb906044016020604051808303816000875af11580156108e5573d6000803e3d6000fd5b505050506040513d601f19601f820116820180604052508101906109099190611630565b508285336001600160a01b03167f16783b3f0676d6e63220b161cedd5415bd909d2f96353db363fbd217a00971b48460405161094791815260200190565b60405180910390a45050336000908152600360208181526040808420878552909152822082815560018101839055600281019290925501805461ffff191690555092915050565b60006103e861099d86866115d3565b11156109e45760405162461bcd60e51b81526020600482015260116024820152700d8caeccae4c2ceca40e8dede40d0d2ced607b1b60448201526064015b60405180910390fd5b6001546040516389fe7fd160e01b81523360048201526001600160a01b03909116906389fe7fd190602401600060405180830381600087803b158015610a2957600080fd5b505af1158015610a3d573d6000803e3d6000fd5b50506001546040516323b872dd60e01b8152336004820152306024820152604481018990526001600160a01b0390911692506323b872dd91506064016020604051808303816000875af1158015610a98573d6000803e3d6000fd5b505050506040513d601f19601f82011682018060405250810190610abc9190611630565b5060008060009054906101000a90046001600160a01b03166001600160a01b0316638f928e3c6040518163ffffffff1660e01b8152600401600060405180830381865afa158015610b11573d6000803e3d6000fd5b505050506040513d6000823e601f3d908101601f19168201604052610b3991908101906114b9565b90506000818481518110610b4f57610b4f6115a6565b6020908102919091018101513360009081526003808452604080832089845290945292902091820154909250610100900460ff1615610be257600381015460ff16151586151514610be25760405162461bcd60e51b815260206004820152601b60248201527f706f736974696f6e20646972656374696f6e206d69736d61746368000000000060448201526064016109db565b600082610bf1896103e86115bc565b610bfb91906115d3565b905088826001016000828254610c11919061161d565b9091555050815481908390600090610c2a90849061161d565b90915550610c3a9050898961164d565b826002016000828254610c4d919061161d565b909155505060038201805460ff1916881515908117909155604080518b815260208101929092528291889133917f394925f64ac2066acac5b7e3396dff87b816e8bb2aa2f1e618cd734d753c01a1910160405180910390a498975050505050505050565b60008060009054906101000a90046001600160a01b03166001600160a01b0316638f928e3c6040518163ffffffff1660e01b8152600401600060405180830381865afa158015610d05573d6000803e3d6000fd5b505050506040513d6000823e601f3d908101601f19168201604052610d2d91908101906114b9565b51905060005b600554811015610df85760005b82811015610de5576003600060058481548110610d5f57610d5f6115a6565b60009182526020808320909101546001600160a01b03168352828101939093526040918201812084825290925290206003015460ff6101009091041615610dd357610dd160058381548110610db657610db66115a6565b6000918252602090912001546001600160a01b031682610f2e565b505b80610ddd8161158d565b915050610d40565b5080610df08161158d565b915050610d33565b5050565b606080600060058054905067ffffffffffffffff811115610e1f57610e1f6114a3565b604051908082528060200260200182016040528015610e48578160200160208202803683370190505b50905060005b600554811015610ec5576004600060058381548110610e6f57610e6f6115a6565b60009182526020808320909101546001600160a01b031683528201929092526040019020548251839083908110610ea857610ea86115a6565b602090810291909101015280610ebd8161158d565b915050610e4e565b5060058181805480602002602001604051908101604052809291908181526020018280548015610f1e57602002820191906000526020600020905b81546001600160a01b03168152600190910190602001808311610f00575b5050505050915092509250509091565b6001600160a01b03821660009081526003602090815260408083208484529091528120600101548181610f61868661109b565b610f6b91906115f5565b1361101b57610f7a8484610715565b60405184906001600160a01b038716907f09c223cfcd8c93e245f558f5f8de755fc0930fd9bc257441155ef5d54a170e0f90600090a46001600160a01b038416600081815260036020818152604080842088855282528084208481556001810185905560028101859055909201805461ffff191690559282526004909252908120805483929061100b908490611660565b90915550600192506107eb915050565b5060009392505050565b6000805460408051631e48403d60e21b815290516060936001600160a01b039093169263792100f492600480820193918290030181865afa15801561106e573d6000803e3d6000fd5b505050506040513d6000823e601f3d908101601f1916820160405261109691908101906114b9565b905090565b6001600160a01b0382166000908152600360208181526040808420858552909152822060018101546002820154919092015460ff16836110db8787610715565b9050811561110357836110ee8483611660565b6110f89190611660565b9450505050506107eb565b806110ee848661161d565b6005818154811061111e57600080fd5b6000918252602090912001546001600160a01b0316905081565b3360009081526004602052604090206002015460ff16156111945760405162461bcd60e51b8152602060048201526016602482015275185b1c9958591e4818db185a5b59590819985d58d95d60521b60448201526064016109db565b60015460405163a9059cbb60e01b815233600482015269021e19e0c9bab240000060248201526001600160a01b039091169063a9059cbb906044016020604051808303816000875af11580156111ee573d6000803e3d6000fd5b505050506040513d601f19601f820116820180604052508101906112129190611630565b50600580546001810182556000919091527f036b6384b5eca791c62761152d0c79bb0604c104a5fb6f4eb0703f3154bb3db00180546001600160a01b03191633179055565b80356001600160a01b038116811461126e57600080fd5b919050565b60006020828403121561128557600080fd5b61128e82611257565b9392505050565b602080825282518282018190526000919060409081850190868401855b82811015611319578151805185528681015187860152858101518686015260608082015115159086015260808082015115159086015260a0808201519086015260c0808201519086015260e0908101519085015261010090930192908501906001016112b2565b5091979650505050505050565b6000806040838503121561133957600080fd5b61134283611257565b946020939093013593505050565b6000806040838503121561136357600080fd5b50508035926020909101359150565b801515811461138057600080fd5b50565b6000806000806080858703121561139957600080fd5b843593506020850135925060408501356113b281611372565b9396929550929360600135925050565b604080825283519082018190526000906020906060840190828701845b828110156114045781516001600160a01b0316845292840192908401906001016113df565b5050508381038285015284518082528583019183019060005b818110156114395783518352928401929184019160010161141d565b5090979650505050505050565b6020808252825182820181905260009190848201906040850190845b8181101561147e57835183529284019291840191600101611462565b50909695505050505050565b60006020828403121561149c57600080fd5b5035919050565b634e487b7160e01b600052604160045260246000fd5b600060208083850312156114cc57600080fd5b825167ffffffffffffffff808211156114e457600080fd5b818501915085601f8301126114f857600080fd5b81518181111561150a5761150a6114a3565b8060051b604051601f19603f8301168101818110858211171561152f5761152f6114a3565b60405291825284820192508381018501918883111561154d57600080fd5b938501935b8285101561156b57845184529385019392850192611552565b98975050505050505050565b634e487b7160e01b600052601160045260246000fd5b60006001820161159f5761159f611577565b5060010190565b634e487b7160e01b600052603260045260246000fd5b80820281158282048414176107eb576107eb611577565b6000826115f057634e487b7160e01b600052601260045260246000fd5b500490565b808201828112600083128015821682158216171561161557611615611577565b505092915050565b808201808211156107eb576107eb611577565b60006020828403121561164257600080fd5b815161128e81611372565b818103818111156107eb576107eb611577565b818103600083128015838313168383128216171561168057611680611577565b509291505056fea2646970667358221220135cea0a84dbf228c31d0fe3d73ac34fcc4a2d748575c96f038323fa17641f3764736f6c6343000814003360806040523480156200001157600080fd5b5060405162000c0138038062000c01833981016040819052620000349162000239565b6040805180820182526004808252635553444360e01b602080840182905284518086019095529184529083015290600362000070838262000310565b5060046200007f828262000310565b5050506200009e3369d3c21bcecceda1000000620000c460201b60201c565b600580546001600160a01b0319166001600160a01b039290921691909117905562000404565b6001600160a01b038216620000f45760405163ec442f0560e01b8152600060048201526024015b60405180910390fd5b620001026000838362000106565b5050565b6001600160a01b03831662000135578060026000828254620001299190620003dc565b90915550620001a99050565b6001600160a01b038316600090815260208190526040902054818110156200018a5760405163391434e360e21b81526001600160a01b03851660048201526024810182905260448101839052606401620000eb565b6001600160a01b03841660009081526020819052604090209082900390555b6001600160a01b038216620001c757600280548290039055620001e6565b6001600160a01b03821660009081526020819052604090208054820190555b816001600160a01b0316836001600160a01b03167fddf252ad1be2c89b69c2b068fc378daa952ba7f163c4a11628f55a4df523b3ef836040516200022c91815260200190565b60405180910390a3505050565b6000602082840312156200024c57600080fd5b81516001600160a01b03811681146200026457600080fd5b9392505050565b634e487b7160e01b600052604160045260246000fd5b600181811c908216806200029657607f821691505b602082108103620002b757634e487b7160e01b600052602260045260246000fd5b50919050565b601f8211156200030b57600081815260208120601f850160051c81016020861015620002e65750805b601f850160051c820191505b818110156200030757828155600101620002f2565b5050505b505050565b81516001600160401b038111156200032c576200032c6200026b565b62000344816200033d845462000281565b84620002bd565b602080601f8311600181146200037c5760008415620003635750858301515b600019600386901b1c1916600185901b17855562000307565b600085815260208120601f198616915b82811015620003ad578886015182559484019460019091019084016200038c565b5085821015620003cc5787850151600019600388901b60f8161c191681555b5050505050600190811b01905550565b80820180821115620003fe57634e487b7160e01b600052601160045260246000fd5b92915050565b6107ed80620004146000396000f3fe608060405234801561001057600080fd5b50600436106100a95760003560e01c806340c10f191161007157806340c10f191461012357806370a082311461013857806389fe7fd11461016157806395d89b4114610174578063a9059cbb1461017c578063dd62ed3e1461018f57600080fd5b806306fdde03146100ae578063095ea7b3146100cc57806318160ddd146100ef57806323b872dd14610101578063313ce56714610114575b600080fd5b6100b66101c8565b6040516100c39190610637565b60405180910390f35b6100df6100da3660046106a1565b61025a565b60405190151581526020016100c3565b6002545b6040519081526020016100c3565b6100df61010f3660046106cb565b610274565b604051601281526020016100c3565b6101366101313660046106a1565b610298565b005b6100f3610146366004610707565b6001600160a01b031660009081526020819052604090205490565b61013661016f366004610707565b6102bd565b6100b66102f1565b6100df61018a3660046106a1565b610300565b6100f361019d366004610729565b6001600160a01b03918216600090815260016020908152604080832093909416825291909152205490565b6060600380546101d79061075c565b80601f01602080910402602001604051908101604052809291908181526020018280546102039061075c565b80156102505780601f1061022557610100808354040283529160200191610250565b820191906000526020600020905b81548152906001019060200180831161023357829003601f168201915b5050505050905090565b60003361026881858561030e565b60019150505b92915050565b600033610282858285610320565b61028d8585856103a3565b506001949350505050565b6005546001600160a01b031633146102af57600080fd5b6102b98282610402565b5050565b6005546001600160a01b031633146102d457600080fd5b6005546102ee9082906001600160a01b031660001961030e565b50565b6060600480546101d79061075c565b6000336102688185856103a3565b61031b8383836001610438565b505050565b6001600160a01b03838116600090815260016020908152604080832093861683529290522054600019811461039d578181101561038e57604051637dc7a0d960e11b81526001600160a01b038416600482015260248101829052604481018390526064015b60405180910390fd5b61039d84848484036000610438565b50505050565b6001600160a01b0383166103cd57604051634b637e8f60e11b815260006004820152602401610385565b6001600160a01b0382166103f75760405163ec442f0560e01b815260006004820152602401610385565b61031b83838361050d565b6001600160a01b03821661042c5760405163ec442f0560e01b815260006004820152602401610385565b6102b96000838361050d565b6001600160a01b0384166104625760405163e602df0560e01b815260006004820152602401610385565b6001600160a01b03831661048c57604051634a1406b160e11b815260006004820152602401610385565b6001600160a01b038085166000908152600160209081526040808320938716835292905220829055801561039d57826001600160a01b0316846001600160a01b03167f8c5be1e5ebec7d5bd14f71427d1e84f3dd0314c0f7b2291e5b200ac8c7c3b925846040516104ff91815260200190565b60405180910390a350505050565b6001600160a01b03831661053857806002600082825461052d9190610796565b909155506105aa9050565b6001600160a01b0383166000908152602081905260409020548181101561058b5760405163391434e360e21b81526001600160a01b03851660048201526024810182905260448101839052606401610385565b6001600160a01b03841660009081526020819052604090209082900390555b6001600160a01b0382166105c6576002805482900390556105e5565b6001600160a01b03821660009081526020819052604090208054820190555b816001600160a01b0316836001600160a01b03167fddf252ad1be2c89b69c2b068fc378daa952ba7f163c4a11628f55a4df523b3ef8360405161062a91815260200190565b60405180910390a3505050565b600060208083528351808285015260005b8181101561066457858101830151858201604001528201610648565b506000604082860101526040601f19601f8301168501019250505092915050565b80356001600160a01b038116811461069c57600080fd5b919050565b600080604083850312156106b457600080fd5b6106bd83610685565b946020939093013593505050565b6000806000606084860312156106e057600080fd5b6106e984610685565b92506106f760208501610685565b9150604084013590509250925092565b60006020828403121561071957600080fd5b61072282610685565b9392505050565b6000806040838503121561073c57600080fd5b61074583610685565b915061075360208401610685565b90509250929050565b600181811c9082168061077057607f821691505b60208210810361079057634e487b7160e01b600052602260045260246000fd5b50919050565b8082018082111561026e57634e487b7160e01b600052601160045260246000fdfea264697066735822122059c7a63f9293e073d45d6e623d0ed9e00744bcf8226490414897811fc2161d6c64736f6c63430008140033","linkReferences":{}},"methodIdentifiers":{"balanceOfNotional(address,uint256)":"7fdd147c","closePosition(uint256,uint256)":"2d6ce61d","faucet()":"de5f72fd","getAllUsersPnlList()":"5327d15c","getMarkOraclePxs()":"792100f4","getPositionPnl(address,uint256)":"7c733c58","getPositionValue(address,uint256)":"2c51060f","getUserPositions(address)":"2a6bc2dd","liquidateAllUsers()":"507cfae5","liquidatePosition(address,uint256)":"76f89965","openPosition(uint256,uint256,bool,uint256)":"3dc8f144","oracle()":"7dc0d1d0","positions(address,uint256)":"c1be6677","usdc()":"3e413bee","userList(uint256)":"9f4216e8","users(address)":"a87430ba"},"id":31}