{"abi":[{"type":"constructor","inputs":[{"name":"owner_","type":"address","internalType":"address"}],"stateMutability":"nonpayable"},{"type":"function","name":"adminPermit","inputs":[{"name":"spender","type":"address","internalType":"address"}],"outputs":[],"stateMutability":"nonpayable"},{"type":"function","name":"allowance","inputs":[{"name":"owner","type":"address","internalType":"address"},{"name":"spender","type":"address","internalType":"address"}],"outputs":[{"name":"","type":"uint256","internalType":"uint256"}],"stateMutability":"view"},{"type":"function","name":"approve","inputs":[{"name":"spender","type":"address","internalType":"address"},{"name":"value","type":"uint256","internalType":"uint256"}],"outputs":[{"name":"","type":"bool","internalType":"bool"}],"stateMutability":"nonpayable"},{"type":"function","name":"balanceOf","inputs":[{"name":"account","type":"address","internalType":"address"}],"outputs":[{"name":"","type":"uint256","internalType":"uint256"}],"stateMutability":"view"},{"type":"function","name":"decimals","inputs":[],"outputs":[{"name":"","type":"uint8","internalType":"uint8"}],"stateMutability":"view"},{"type":"function","name":"mint","inputs":[{"name":"to","type":"address","internalType":"address"},{"name":"amount","type":"uint256","internalType":"uint256"}],"outputs":[],"stateMutability":"nonpayable"},{"type":"function","name":"name","inputs":[],"outputs":[{"name":"","type":"string","internalType":"string"}],"stateMutability":"view"},{"type":"function","name":"symbol","inputs":[],"outputs":[{"name":"","type":"string","internalType":"string"}],"stateMutability":"view"},{"type":"function","name":"totalSupply","inputs":[],"outputs":[{"name":"","type":"uint256","internalType":"uint256"}],"stateMutability":"view"},{"type":"function","name":"transfer","inputs":[{"name":"to","type":"address","internalType":"address"},{"name":"value","type":"uint256","internalType":"uint256"}],"outputs":[{"name":"","type":"bool","internalType":"bool"}],"stateMutability":"nonpayable"},{"type":"function","name":"transferFrom","inputs":[{"name":"from","type":"address","internalType":"address"},{"name":"to","type":"address","internalType":"address"},{"name":"value","type":"uint256","internalType":"uint256"}],"outputs":[{"name":"","type":"bool","internalType":"bool"}],"stateMutability":"nonpayable"},{"type":"event","name":"Approval","inputs":[{"name":"owner","type":"address","indexed":true,"internalType":"address"},{"name":"spender","type":"address","indexed":true,"internalType":"address"},{"name":"value","type":"uint256","indexed":false,"internalType":"uint256"}],"anonymous":false},{"type":"event","name":"Transfer","inputs":[{"name":"from","type":"address","indexed":true,"internalType":"address"},{"name":"to","type":"address","indexed":true,"internalType":"address"},{"name":"value","type":"uint256","indexed":false,"internalType":"uint256"}],"anonymous":false},{"type":"error","name":"ERC20InsufficientAllowance","inputs":[{"name":"spender","type":"address","internalType":"address"},{"name":"allowance","type":"uint256","internalType":"uint256"},{"name":"needed","type":"uint256","internalType":"uint256"}]},{"type":"error","name":"ERC20InsufficientBalance","inputs":[{"name":"sender","type":"address","internalType":"address"},{"name":"balance","type":"uint256","internalType":"uint256"},{"name":"needed","type":"uint256","internalType":"uint256"}]},{"type":"error","name":"ERC20InvalidApprover","inputs":[{"name":"approver","type":"address","internalType":"address"}]},{"type":"error","name":"ERC20InvalidReceiver","inputs":[{"name":"receiver","type":"address","internalType":"address"}]},{"type":"error","name":"ERC20InvalidSender","inputs":[{"name":"sender","type":"address","internalType":"address"}]},{"type":"error","name":"ERC20InvalidSpender","inputs":[{"name":"spender","type":"address","internalType":"address"}]}],"bytecode":{"object":"0x60806040523480156200001157600080fd5b5060405162000c0138038062000c01833981016040819052620000349162000239565b6040805180820182526004808252635553444360e01b602080840182905284518086019095529184529083015290600362000070838262000310565b5060046200007f828262000310565b5050506200009e3369d3c21bcecceda1000000620000c460201b60201c565b600580546001600160a01b0319166001600160a01b039290921691909117905562000404565b6001600160a01b038216620000f45760405163ec442f0560e01b8152600060048201526024015b60405180910390fd5b620001026000838362000106565b5050565b6001600160a01b03831662000135578060026000828254620001299190620003dc565b90915550620001a99050565b6001600160a01b038316600090815260208190526040902054818110156200018a5760405163391434e360e21b81526001600160a01b03851660048201526024810182905260448101839052606401620000eb565b6001600160a01b03841660009081526020819052604090209082900390555b6001600160a01b038216620001c757600280548290039055620001e6565b6001600160a01b03821660009081526020819052604090208054820190555b816001600160a01b0316836001600160a01b03167fddf252ad1be2c89b69c2b068fc378daa952ba7f163c4a11628f55a4df523b3ef836040516200022c91815260200190565b60405180910390a3505050565b6000602082840312156200024c57600080fd5b81516001600160a01b03811681146200026457600080fd5b9392505050565b634e487b7160e01b600052604160045260246000fd5b600181811c908216806200029657607f821691505b602082108103620002b757634e487b7160e01b600052602260045260246000fd5b50919050565b601f8211156200030b57600081815260208120601f850160051c81016020861015620002e65750805b601f850160051c820191505b818110156200030757828155600101620002f2565b5050505b505050565b81516001600160401b038111156200032c576200032c6200026b565b62000344816200033d845462000281565b84620002bd565b602080601f8311600181146200037c5760008415620003635750858301515b600019600386901b1c1916600185901b17855562000307565b600085815260208120601f198616915b82811015620003ad578886015182559484019460019091019084016200038c565b5085821015620003cc5787850151600019600388901b60f8161c191681555b5050505050600190811b01905550565b80820180821115620003fe57634e487b7160e01b600052601160045260246000fd5b92915050565b6107ed80620004146000396000f3fe608060405234801561001057600080fd5b50600436106100a95760003560e01c806340c10f191161007157806340c10f191461012357806370a082311461013857806389fe7fd11461016157806395d89b4114610174578063a9059cbb1461017c578063dd62ed3e1461018f57600080fd5b806306fdde03146100ae578063095ea7b3146100cc57806318160ddd146100ef57806323b872dd14610101578063313ce56714610114575b600080fd5b6100b66101c8565b6040516100c39190610637565b60405180910390f35b6100df6100da3660046106a1565b61025a565b60405190151581526020016100c3565b6002545b6040519081526020016100c3565b6100df61010f3660046106cb565b610274565b604051601281526020016100c3565b6101366101313660046106a1565b610298565b005b6100f3610146366004610707565b6001600160a01b031660009081526020819052604090205490565b61013661016f366004610707565b6102bd565b6100b66102f1565b6100df61018a3660046106a1565b610300565b6100f361019d366004610729565b6001600160a01b03918216600090815260016020908152604080832093909416825291909152205490565b6060600380546101d79061075c565b80601f01602080910402602001604051908101604052809291908181526020018280546102039061075c565b80156102505780601f1061022557610100808354040283529160200191610250565b820191906000526020600020905b81548152906001019060200180831161023357829003601f168201915b5050505050905090565b60003361026881858561030e565b60019150505b92915050565b600033610282858285610320565b61028d8585856103a3565b506001949350505050565b6005546001600160a01b031633146102af57600080fd5b6102b98282610402565b5050565b6005546001600160a01b031633146102d457600080fd5b6005546102ee9082906001600160a01b031660001961030e565b50565b6060600480546101d79061075c565b6000336102688185856103a3565b61031b8383836001610438565b505050565b6001600160a01b03838116600090815260016020908152604080832093861683529290522054600019811461039d578181101561038e57604051637dc7a0d960e11b81526001600160a01b038416600482015260248101829052604481018390526064015b60405180910390fd5b61039d84848484036000610438565b50505050565b6001600160a01b0383166103cd57604051634b637e8f60e11b815260006004820152602401610385565b6001600160a01b0382166103f75760405163ec442f0560e01b815260006004820152602401610385565b61031b83838361050d565b6001600160a01b03821661042c5760405163ec442f0560e01b815260006004820152602401610385565b6102b96000838361050d565b6001600160a01b0384166104625760405163e602df0560e01b815260006004820152602401610385565b6001600160a01b03831661048c57604051634a1406b160e11b815260006004820152602401610385565b6001600160a01b038085166000908152600160209081526040808320938716835292905220829055801561039d57826001600160a01b0316846001600160a01b03167f8c5be1e5ebec7d5bd14f71427d1e84f3dd0314c0f7b2291e5b200ac8c7c3b925846040516104ff91815260200190565b60405180910390a350505050565b6001600160a01b03831661053857806002600082825461052d9190610796565b909155506105aa9050565b6001600160a01b0383166000908152602081905260409020548181101561058b5760405163391434e360e21b81526001600160a01b03851660048201526024810182905260448101839052606401610385565b6001600160a01b03841660009081526020819052604090209082900390555b6001600160a01b0382166105c6576002805482900390556105e5565b6001600160a01b03821660009081526020819052604090208054820190555b816001600160a01b0316836001600160a01b03167fddf252ad1be2c89b69c2b068fc378daa952ba7f163c4a11628f55a4df523b3ef8360405161062a91815260200190565b60405180910390a3505050565b600060208083528351808285015260005b8181101561066457858101830151858201604001528201610648565b506000604082860101526040601f19601f8301168501019250505092915050565b80356001600160a01b038116811461069c57600080fd5b919050565b600080604083850312156106b457600080fd5b6106bd83610685565b946020939093013593505050565b6000806000606084860312156106e057600080fd5b6106e984610685565b92506106f760208501610685565b9150604084013590509250925092565b60006020828403121561071957600080fd5b61072282610685565b9392505050565b6000806040838503121561073c57600080fd5b61074583610685565b915061075360208401610685565b90509250929050565b600181811c9082168061077057607f821691505b60208210810361079057634e487b7160e01b600052602260045260246000fd5b50919050565b8082018082111561026e57634e487b7160e01b600052601160045260246000fdfea264697066735822122059c7a63f9293e073d45d6e623d0ed9e00744bcf8226490414897811fc2161d6c64736f6c63430008140033","linkReferences":{}},"methodIdentifiers":{"adminPermit(address)":"89fe7fd1","allowance(address,address)":"dd62ed3e","approve(address,uint256)":"095ea7b3","balanceOf(address)":"70a08231","decimals()":"313ce567","mint(address,uint256)":"40c10f19","name()":"06fdde03","symbol()":"95d89b41","totalSupply()":"18160ddd","transfer(address,uint256)":"a9059cbb","transferFrom(address,address,uint256)":"23b872dd"},"id":31}